{
  "address": "0x4D2F6933C8995A1344f06e908b739cbb00Fa653B",
  "abi": [
    {
      "inputs": [
        {
          "internalType": "address",
          "name": "exampleExternalContractAddress",
          "type": "address"
        }
      ],
      "stateMutability": "nonpayable",
      "type": "constructor"
    },
    {
      "anonymous": false,
      "inputs": [
        {
          "indexed": true,
          "internalType": "address",
          "name": "sender",
          "type": "address"
        },
        {
          "indexed": false,
          "internalType": "uint256",
          "name": "amount",
          "type": "uint256"
        }
      ],
      "name": "Stake",
      "type": "event"
    },
    {
      "inputs": [
        {
          "internalType": "address",
          "name": "",
          "type": "address"
        }
      ],
      "name": "balances",
      "outputs": [
        {
          "internalType": "uint256",
          "name": "",
          "type": "uint256"
        }
      ],
      "stateMutability": "view",
      "type": "function"
    },
    {
      "inputs": [],
      "name": "deadline",
      "outputs": [
        {
          "internalType": "uint256",
          "name": "",
          "type": "uint256"
        }
      ],
      "stateMutability": "view",
      "type": "function"
    },
    {
      "inputs": [],
      "name": "exampleExternalContract",
      "outputs": [
        {
          "internalType": "contract ExampleExternalContract",
          "name": "",
          "type": "address"
        }
      ],
      "stateMutability": "view",
      "type": "function"
    },
    {
      "inputs": [],
      "name": "execute",
      "outputs": [],
      "stateMutability": "nonpayable",
      "type": "function"
    },
    {
      "inputs": [],
      "name": "stake",
      "outputs": [],
      "stateMutability": "payable",
      "type": "function"
    },
    {
      "inputs": [],
      "name": "threshold",
      "outputs": [
        {
          "internalType": "uint256",
          "name": "",
          "type": "uint256"
        }
      ],
      "stateMutability": "view",
      "type": "function"
    },
    {
      "inputs": [],
      "name": "timeLeft",
      "outputs": [
        {
          "internalType": "uint256",
          "name": "timeleft",
          "type": "uint256"
        }
      ],
      "stateMutability": "view",
      "type": "function"
    },
    {
      "inputs": [],
      "name": "withdraw",
      "outputs": [],
      "stateMutability": "nonpayable",
      "type": "function"
    }
  ],
  "transactionHash": "0xd9f52974e08c36dfa214a1b01eada058bbf16593d0bd08668f2fb41ac2284847",
  "args": [
    "0xa304af24BC7eFD0b20E007A410faFEfe07b04062"
  ],
  "solcInputHash": "37b951b988dd0d07e63bdc097b23be47",
  "bytecode": "0x608060405261000f42601e610090565b60025534801561001e57600080fd5b506040516109ce3803806109ce83398101604081905261003d91610062565b600080546001600160a01b0319166001600160a01b03929092169190911790556100b4565b600060208284031215610073578081fd5b81516001600160a01b0381168114610089578182fd5b9392505050565b600082198211156100af57634e487b7160e01b81526011600452602481fd5b500190565b61090b806100c36000396000f3fe60806040526004361061007b5760003560e01c80633ccfd60b1161004e5780633ccfd60b146100f557806342cde4e81461010a57806361461954146101265780639f75f2271461013b57600080fd5b80631300a6d11461008057806327e235e3146100a857806329dcb0cf146100d55780633a4b66f1146100eb575b600080fd5b34801561008c57600080fd5b50610095610173565b6040519081526020015b60405180910390f35b3480156100b457600080fd5b506100956100c336600461075a565b60016020526000908152604090205481565b3480156100e157600080fd5b5061009560025481565b6100f3610197565b005b34801561010157600080fd5b506100f36102fb565b34801561011657600080fd5b50610095670de0b6b3a764000081565b34801561013257600080fd5b506100f3610524565b34801561014757600080fd5b5060005461015b906001600160a01b031681565b6040516001600160a01b03909116815260200161009f565b600060025442106101845750600090565b4260025461019291906108a8565b905090565b6000806101a2610173565b905081156101d65780156101d15760405162461bcd60e51b81526004016101c890610859565b60405180910390fd5b6101f6565b600081116101f65760405162461bcd60e51b81526004016101c890610822565b60008060009054906101000a90046001600160a01b03166001600160a01b0316639d9a7fe96040518163ffffffff1660e01b815260040160206040518083038186803b15801561024557600080fd5b505afa158015610259573d6000803e3d6000fd5b505050506040513d601f19601f8201168201806040525081019061027d9190610788565b9050801561029d5760405162461bcd60e51b81526004016101c8906107e1565b33600090815260016020526040812080543492906102bc908490610890565b909155505060405134815233907febedb8b3c678666e7f36970bc8f57abf6d8fa2e828c0da91ea5b75bf68ed101a9060200160405180910390a2505050565b60016000610307610173565b9050811561033257801561032d5760405162461bcd60e51b81526004016101c890610859565b610352565b600081116103525760405162461bcd60e51b81526004016101c890610822565b60008060009054906101000a90046001600160a01b03166001600160a01b0316639d9a7fe96040518163ffffffff1660e01b815260040160206040518083038186803b1580156103a157600080fd5b505afa1580156103b5573d6000803e3d6000fd5b505050506040513d601f19601f820116820180604052508101906103d99190610788565b905080156103f95760405162461bcd60e51b81526004016101c8906107e1565b33600090815260016020526040902054806104615760405162461bcd60e51b815260206004820152602260248201527f596f7520646f6e277420686176652062616c616e636520746f20776974686472604482015261617760f01b60648201526084016101c8565b336000818152600160205260408082208290555190919083908381818185875af1925050503d80600081146104b2576040519150601f19603f3d011682016040523d82523d6000602084013e6104b7565b606091505b505090508061051d5760405162461bcd60e51b815260206004820152602c60248201527f4661696c656420746f2073656e6420757365722062616c616e6365206261636b60448201526b103a37903a3432903ab9b2b960a11b60648201526084016101c8565b5050505050565b60008060009054906101000a90046001600160a01b03166001600160a01b0316639d9a7fe96040518163ffffffff1660e01b815260040160206040518083038186803b15801561057357600080fd5b505afa158015610587573d6000803e3d6000fd5b505050506040513d601f19601f820116820180604052508101906105ab9190610788565b905080156105cb5760405162461bcd60e51b81526004016101c8906107e1565b6000806105d6610173565b905081156106015780156105fc5760405162461bcd60e51b81526004016101c890610859565b610621565b600081116106215760405162461bcd60e51b81526004016101c890610822565b47670de0b6b3a76400008110156106725760405162461bcd60e51b8152602060048201526015602482015274151a1c995cda1bdb19081b9bdd081c995858da1959605a1b60448201526064016101c8565b6000805460408051600481526024810182526020810180516001600160e01b031663522e117760e01b17905290516001600160a01b039092169184916106b7916107a8565b60006040518083038185875af1925050503d80600081146106f4576040519150601f19603f3d011682016040523d82523d6000602084013e6106f9565b606091505b505090508061051d5760405162461bcd60e51b815260206004820152602760248201527f6578616d706c6545787465726e616c436f6e74726163742e636f6d706c6574656044820152660819985a5b195960ca1b60648201526084016101c8565b60006020828403121561076b578081fd5b81356001600160a01b0381168114610781578182fd5b9392505050565b600060208284031215610799578081fd5b81518015158114610781578182fd5b60008251815b818110156107c857602081860181015185830152016107ae565b818111156107d65782828501525b509190910192915050565b60208082526021908201527f7374616b696e672070726f6365737320616c726561647920636f6d706c6574656040820152601960fa1b606082015260800190565b6020808252601b908201527f446561646c696e6520697320616c726561647920726561636865640000000000604082015260600190565b6020808252601b908201527f446561646c696e65206973206e6f742072656163686564207965740000000000604082015260600190565b600082198211156108a3576108a36108bf565b500190565b6000828210156108ba576108ba6108bf565b500390565b634e487b7160e01b600052601160045260246000fdfea26469706673582212202fe2d9c9707628bde0edd291cfe46f758146836e99d14528088237df5ac2841564736f6c63430008040033",
  "devdoc": {
    "author": "scaffold-eth",
    "kind": "dev",
    "methods": {
      "constructor": {
        "params": {
          "exampleExternalContractAddress": "Address of the external contract that will hold stacked funds"
        }
      }
    },
    "title": "Stacker Contract",
    "version": 1
  },
  "userdoc": {
    "kind": "user",
    "methods": {
      "constructor": {
        "notice": "Contract Constructor"
      },
      "stake()": {
        "notice": "Stake method that update the user's balance"
      },
      "timeLeft()": {
        "notice": "The number of seconds remaining until the deadline is reached"
      },
      "withdraw()": {
        "notice": "Allow users to withdraw their balance from the contract only if deadline is reached but the stake is not completed"
      }
    },
    "notice": "A contract that allow users to stack ETH",
    "version": 1
  },
  "storageLayout": {
    "storage": [
      {
        "astId": 20,
        "contract": "contracts/Staker.sol:Staker",
        "label": "exampleExternalContract",
        "offset": 0,
        "slot": "0",
        "type": "t_contract(ExampleExternalContract)12"
      },
      {
        "astId": 24,
        "contract": "contracts/Staker.sol:Staker",
        "label": "balances",
        "offset": 0,
        "slot": "1",
        "type": "t_mapping(t_address,t_uint256)"
      },
      {
        "astId": 33,
        "contract": "contracts/Staker.sol:Staker",
        "label": "deadline",
        "offset": 0,
        "slot": "2",
        "type": "t_uint256"
      }
    ],
    "types": {
      "t_address": {
        "encoding": "inplace",
        "label": "address",
        "numberOfBytes": "20"
      },
      "t_contract(ExampleExternalContract)12": {
        "encoding": "inplace",
        "label": "contract ExampleExternalContract",
        "numberOfBytes": "20"
      },
      "t_mapping(t_address,t_uint256)": {
        "encoding": "mapping",
        "key": "t_address",
        "label": "mapping(address => uint256)",
        "numberOfBytes": "32",
        "value": "t_uint256"
      },
      "t_uint256": {
        "encoding": "inplace",
        "label": "uint256",
        "numberOfBytes": "32"
      }
    }
  }
}